{
  "fileName": "PortfolioBalancer.sol",
  "contractName": "PortfolioBalancer",
  "source": "pragma solidity 0.6.0;\n\n//openzeppelin\nimport \"@openzeppelin/contracts/utils/ReentrancyGuard.sol\";\nimport \"@openzeppelin/contracts/access/Ownable.sol\";\nimport \"@openzeppelin/contracts/math/SafeMath.sol\";\n\ninterface IUniswapV2Router02 {\n    function factory() external pure returns (address);\n\n    function WETH() external pure returns (address);\n\n    function addLiquidity(\n        address tokenA,\n        address tokenB,\n        uint256 amountADesired,\n        uint256 amountBDesired,\n        uint256 amountAMin,\n        uint256 amountBMin,\n        address to,\n        uint256 deadline\n    )\n        external\n        returns (\n            uint256 amountA,\n            uint256 amountB,\n            uint256 liquidity\n        );\n\n    function addLiquidityETH(\n        address token,\n        uint256 amountTokenDesired,\n        uint256 amountTokenMin,\n        uint256 amountETHMin,\n        address to,\n        uint256 deadline\n    )\n        external\n        payable\n        returns (\n            uint256 amountToken,\n            uint256 amountETH,\n            uint256 liquidity\n        );\n\n    function removeLiquidity(\n        address tokenA,\n        address tokenB,\n        uint256 liquidity,\n        uint256 amountAMin,\n        uint256 amountBMin,\n        address to,\n        uint256 deadline\n    ) external returns (uint256 amountA, uint256 amountB);\n\n    function removeLiquidityETH(\n        address token,\n        uint256 liquidity,\n        uint256 amountTokenMin,\n        uint256 amountETHMin,\n        address to,\n        uint256 deadline\n    ) external returns (uint256 amountToken, uint256 amountETH);\n\n    function removeLiquidityWithPermit(\n        address tokenA,\n        address tokenB,\n        uint256 liquidity,\n        uint256 amountAMin,\n        uint256 amountBMin,\n        address to,\n        uint256 deadline,\n        bool approveMax,\n        uint8 v,\n        bytes32 r,\n        bytes32 s\n    ) external returns (uint256 amountA, uint256 amountB);\n\n    function removeLiquidityETHWithPermit(\n        address token,\n        uint256 liquidity,\n        uint256 amountTokenMin,\n        uint256 amountETHMin,\n        address to,\n        uint256 deadline,\n        bool approveMax,\n        uint8 v,\n        bytes32 r,\n        bytes32 s\n    ) external returns (uint256 amountToken, uint256 amountETH);\n\n    function swapExactTokensForTokens(\n        uint256 amountIn,\n        uint256 amountOutMin,\n        address[] calldata path,\n        address to,\n        uint256 deadline\n    ) external returns (uint256[] memory amounts);\n\n    function swapTokensForExactTokens(\n        uint256 amountOut,\n        uint256 amountInMax,\n        address[] calldata path,\n        address to,\n        uint256 deadline\n    ) external returns (uint256[] memory amounts);\n\n    function swapExactETHForTokens(\n        uint256 amountOutMin,\n        address[] calldata path,\n        address to,\n        uint256 deadline\n    ) external payable returns (uint256[] memory amounts);\n\n    function swapTokensForExactETH(\n        uint256 amountOut,\n        uint256 amountInMax,\n        address[] calldata path,\n        address to,\n        uint256 deadline\n    ) external returns (uint256[] memory amounts);\n\n    function swapExactTokensForETH(\n        uint256 amountIn,\n        uint256 amountOutMin,\n        address[] calldata path,\n        address to,\n        uint256 deadline\n    ) external returns (uint256[] memory amounts);\n\n    function swapETHForExactTokens(\n        uint256 amountOut,\n        address[] calldata path,\n        address to,\n        uint256 deadline\n    ) external payable returns (uint256[] memory amounts);\n\n    function removeLiquidityETHSupportingFeeOnTransferTokens(\n        address token,\n        uint256 liquidity,\n        uint256 amountTokenMin,\n        uint256 amountETHMin,\n        address to,\n        uint256 deadline\n    ) external returns (uint256 amountETH);\n\n    function removeLiquidityETHWithPermitSupportingFeeOnTransferTokens(\n        address token,\n        uint256 liquidity,\n        uint256 amountTokenMin,\n        uint256 amountETHMin,\n        address to,\n        uint256 deadline,\n        bool approveMax,\n        uint8 v,\n        bytes32 r,\n        bytes32 s\n    ) external returns (uint256 amountETH);\n\n    function swapExactTokensForTokensSupportingFeeOnTransferTokens(\n        uint256 amountIn,\n        uint256 amountOutMin,\n        address[] calldata path,\n        address to,\n        uint256 deadline\n    ) external;\n\n    function swapExactETHForTokensSupportingFeeOnTransferTokens(\n        uint256 amountOutMin,\n        address[] calldata path,\n        address to,\n        uint256 deadline\n    ) external payable;\n\n    function swapExactTokensForETHSupportingFeeOnTransferTokens(\n        uint256 amountIn,\n        uint256 amountOutMin,\n        address[] calldata path,\n        address to,\n        uint256 deadline\n    ) external;\n\n    function quote(\n        uint256 amountA,\n        uint256 reserveA,\n        uint256 reserveB\n    ) external pure returns (uint256 amountB);\n\n    function getAmountOut(\n        uint256 amountIn,\n        uint256 reserveIn,\n        uint256 reserveOut\n    ) external pure returns (uint256 amountOut);\n\n    function getAmountIn(\n        uint256 amountOut,\n        uint256 reserveIn,\n        uint256 reserveOut\n    ) external pure returns (uint256 amountIn);\n\n    function getAmountsOut(uint256 amountIn, address[] calldata path)\n        external\n        view\n        returns (uint256[] memory amounts);\n\n    function getAmountsIn(uint256 amountOut, address[] calldata path)\n        external\n        view\n        returns (uint256[] memory amounts);\n}\n\ninterface IERC20 {\n    /**\n     * @dev Returns the number of decimals.\n     */\n    function decimals() external view returns (uint256);\n\n    /**\n     * @dev Returns the amount of tokens in existence.\n     */\n    function totalSupply() external view returns (uint256);\n\n    /**\n     * @dev Returns the amount of tokens owned by `account`.\n     */\n    function balanceOf(address account) external view returns (uint256);\n\n    /**\n     * @dev Moves `amount` tokens from the caller's account to `recipient`.\n     *\n     * Returns a boolean value indicating whether the operation succeeded.\n     *\n     * Emits a {Transfer} event.\n     */\n    function transfer(address recipient, uint256 amount)\n        external\n        returns (bool);\n\n    /**\n     * @dev Returns the remaining number of tokens that `spender` will be\n     * allowed to spend on behalf of `owner` through {transferFrom}. This is\n     * zero by default.\n     *\n     * This value changes when {approve} or {transferFrom} are called.\n     */\n    function allowance(address owner, address spender)\n        external\n        view\n        returns (uint256);\n\n    /**\n     * @dev Sets `amount` as the allowance of `spender` over the caller's tokens.\n     *\n     * Returns a boolean value indicating whether the operation succeeded.\n     *\n     * IMPORTANT: Beware that changing an allowance with this method brings the risk\n     * that someone may use both the old and the new allowance by unfortunate\n     * transaction ordering. One possible solution to mitigate this race\n     * condition is to first reduce the spender's allowance to 0 and set the\n     * desired value afterwards:\n     * https://github.com/ethereum/EIPs/issues/20#issuecomment-263524729\n     *\n     * Emits an {Approval} event.\n     */\n    function approve(address spender, uint256 amount) external returns (bool);\n\n    /**\n     * @dev Moves `amount` tokens from `sender` to `recipient` using the\n     * allowance mechanism. `amount` is then deducted from the caller's\n     * allowance.\n     *\n     * Returns a boolean value indicating whether the operation succeeded.\n     *\n     * Emits a {Transfer} event.\n     */\n    function transferFrom(\n        address sender,\n        address recipient,\n        uint256 amount\n    ) external returns (bool);\n\n    /**\n     * @dev Emitted when `value` tokens are moved from one account (`from`) to\n     * another (`to`).\n     *\n     * Note that `value` may be zero.\n     */\n    event Transfer(address indexed from, address indexed to, uint256 value);\n\n    /**\n     * @dev Emitted when the allowance of a `spender` for an `owner` is set by\n     * a call to {approve}. `value` is the new allowance.\n     */\n    event Approval(\n        address indexed owner,\n        address indexed spender,\n        uint256 value\n    );\n}\n\ncontract PortfolioBalancer is ReentrancyGuard, Ownable {\n    using SafeMath for uint256;\n\n    bool private stopped = false;\n\n    address wethTokenAddress = 0xC02aaA39b223FE8D0A0e5C4F27eAD9083C756Cc2;\n    address daiTokenAddress = 0x6B175474E89094C44Da98b954EedeAC495271d0F;\n    address wbtcTokenAddress = 0x2260FAC5E5542a773Aa44fBCfeDf7C193bc2C599;\n    address paxgTokenAddress = 0x45804880De22913dAFE09f4980848ECE6EcbAf78;\n\n    IUniswapV2Router02 public uniswapV2Router = IUniswapV2Router02(\n        0x7a250d5630B4cF539739dF2C5dAcb4c659F2488D\n    );\n\n    constructor() public {}\n\n    /**\n    @notice This function is used to buy different ERC20 token on uniswap excahnge\n    @param _amountInETHForDAI The amount of ETH to pay for DAI\n    @param _amountOutMinDAI The minimum amount of DAI\n    @param _amountInETHForWBTC The amount of ETH to pay for WBTC\n    @param _amountOutMinWBTC The minimum amount of WBTC\n    @param _amountInETHForPAXG The amount of ETH to pay for WBTC\n    @param _amountOutMinPAXG he minimum amount of WBTC coins\n    @return Amount of LP bought\n     */\n\n    function rebalance(\n        uint256 _amountInETHForDAI,\n        uint256 _amountOutMinDAI,\n        uint256 _amountInETHForWBTC,\n        uint256 _amountOutMinWBTC,\n        uint256 _amountInETHForPAXG,\n        uint256 _amountOutMinPAXG\n    ) public payable nonReentrant returns (uint256) {\n        address[] memory path = new address[](2);\n\n        path[0] = wethTokenAddress;\n        //buy DAI\n        path[1] = daiTokenAddress;\n\n        uint256[] memory amountsDAI = uniswapV2Router\n            .swapExactETHForTokens\n            .value(_amountInETHForDAI)(\n            _amountOutMinDAI,\n            path,\n            msg.sender,\n            now + 280\n        );\n\n        //buy WBTC\n        path[1] = wbtcTokenAddress;\n\n        uint256[] memory amountsWBTC = uniswapV2Router\n            .swapExactETHForTokens\n            .value(_amountInETHForWBTC)(\n            _amountOutMinWBTC,\n            path,\n            msg.sender,\n            now + 180\n        );\n\n        //buy PAXG\n        path[1] = paxgTokenAddress;\n\n        uint256[] memory amountsPAXG = uniswapV2Router\n            .swapExactETHForTokens\n            .value(_amountInETHForPAXG)(\n            _amountOutMinPAXG,\n            path,\n            msg.sender,\n            now + 180\n        );\n\n        return amountsWBTC[1];\n    }\n}\n",
  "sourcePath": "contracts/PortfolioBalancer.sol",
  "abi": [
    {
      "inputs": [],
      "stateMutability": "nonpayable",
      "type": "constructor"
    },
    {
      "anonymous": false,
      "inputs": [
        {
          "indexed": true,
          "internalType": "address",
          "name": "previousOwner",
          "type": "address"
        },
        {
          "indexed": true,
          "internalType": "address",
          "name": "newOwner",
          "type": "address"
        }
      ],
      "name": "OwnershipTransferred",
      "type": "event"
    },
    {
      "inputs": [],
      "name": "owner",
      "outputs": [
        {
          "internalType": "address",
          "name": "",
          "type": "address"
        }
      ],
      "stateMutability": "view",
      "type": "function"
    },
    {
      "inputs": [
        {
          "internalType": "uint256",
          "name": "_amountInETHForDAI",
          "type": "uint256"
        },
        {
          "internalType": "uint256",
          "name": "_amountOutMinDAI",
          "type": "uint256"
        },
        {
          "internalType": "uint256",
          "name": "_amountInETHForWBTC",
          "type": "uint256"
        },
        {
          "internalType": "uint256",
          "name": "_amountOutMinWBTC",
          "type": "uint256"
        },
        {
          "internalType": "uint256",
          "name": "_amountInETHForPAXG",
          "type": "uint256"
        },
        {
          "internalType": "uint256",
          "name": "_amountOutMinPAXG",
          "type": "uint256"
        }
      ],
      "name": "rebalance",
      "outputs": [
        {
          "internalType": "uint256",
          "name": "",
          "type": "uint256"
        }
      ],
      "stateMutability": "payable",
      "type": "function"
    },
    {
      "inputs": [],
      "name": "renounceOwnership",
      "outputs": [],
      "stateMutability": "nonpayable",
      "type": "function"
    },
    {
      "inputs": [
        {
          "internalType": "address",
          "name": "newOwner",
          "type": "address"
        }
      ],
      "name": "transferOwnership",
      "outputs": [],
      "stateMutability": "nonpayable",
      "type": "function"
    },
    {
      "inputs": [],
      "name": "uniswapV2Router",
      "outputs": [
        {
          "internalType": "contract IUniswapV2Router02",
          "name": "",
          "type": "address"
        }
      ],
      "stateMutability": "view",
      "type": "function"
    }
  ],
  "bytecode": "0x60806040526000600160146101000a81548160ff02191690831515021790555073c02aaa39b223fe8d0a0e5c4f27ead9083c756cc2600260006101000a81548173ffffffffffffffffffffffffffffffffffffffff021916908373ffffffffffffffffffffffffffffffffffffffff160217905550736b175474e89094c44da98b954eedeac495271d0f600360006101000a81548173ffffffffffffffffffffffffffffffffffffffff021916908373ffffffffffffffffffffffffffffffffffffffff160217905550732260fac5e5542a773aa44fbcfedf7c193bc2c599600460006101000a81548173ffffffffffffffffffffffffffffffffffffffff021916908373ffffffffffffffffffffffffffffffffffffffff1602179055507345804880de22913dafe09f4980848ece6ecbaf78600560006101000a81548173ffffffffffffffffffffffffffffffffffffffff021916908373ffffffffffffffffffffffffffffffffffffffff160217905550737a250d5630b4cf539739df2c5dacb4c659f2488d600660006101000a81548173ffffffffffffffffffffffffffffffffffffffff021916908373ffffffffffffffffffffffffffffffffffffffff1602179055503480156101d457600080fd5b50600160008190555060006101ed61029160201b60201c565b905080600160006101000a81548173ffffffffffffffffffffffffffffffffffffffff021916908373ffffffffffffffffffffffffffffffffffffffff1602179055508073ffffffffffffffffffffffffffffffffffffffff16600073ffffffffffffffffffffffffffffffffffffffff167f8be0079c531659141344cd1fd0a4f28419497f9722a3daafe3b4186f6b6457e060405160405180910390a350610299565b600033905090565b610e3b806102a86000396000f3fe60806040526004361061004a5760003560e01c806308aa61751461004f5780631694505e146100c3578063715018a61461011a5780638da5cb5b14610131578063f2fde38b14610188575b600080fd5b6100ad600480360360c081101561006557600080fd5b810190808035906020019092919080359060200190929190803590602001909291908035906020019092919080359060200190929190803590602001909291905050506101d9565b6040518082815260200191505060405180910390f35b3480156100cf57600080fd5b506100d86109ec565b604051808273ffffffffffffffffffffffffffffffffffffffff1673ffffffffffffffffffffffffffffffffffffffff16815260200191505060405180910390f35b34801561012657600080fd5b5061012f610a12565b005b34801561013d57600080fd5b50610146610b9d565b604051808273ffffffffffffffffffffffffffffffffffffffff1673ffffffffffffffffffffffffffffffffffffffff16815260200191505060405180910390f35b34801561019457600080fd5b506101d7600480360360208110156101ab57600080fd5b81019080803573ffffffffffffffffffffffffffffffffffffffff169060200190929190505050610bc7565b005b600060026000541415610254576040517f08c379a000000000000000000000000000000000000000000000000000000000815260040180806020018281038252601f8152602001807f5265656e7472616e637947756172643a207265656e7472616e742063616c6c0081525060200191505060405180910390fd5b60026000819055506060600260405190808252806020026020018201604052801561028e5781602001602082028038833980820191505090505b509050600260009054906101000a900473ffffffffffffffffffffffffffffffffffffffff16816000815181106102c157fe5b602002602001019073ffffffffffffffffffffffffffffffffffffffff16908173ffffffffffffffffffffffffffffffffffffffff1681525050600360009054906101000a900473ffffffffffffffffffffffffffffffffffffffff168160018151811061032b57fe5b602002602001019073ffffffffffffffffffffffffffffffffffffffff16908173ffffffffffffffffffffffffffffffffffffffff16815250506060600660009054906101000a900473ffffffffffffffffffffffffffffffffffffffff1673ffffffffffffffffffffffffffffffffffffffff16637ff36ab58a8a853361011842016040518663ffffffff1660e01b815260040180858152602001806020018473ffffffffffffffffffffffffffffffffffffffff1673ffffffffffffffffffffffffffffffffffffffff168152602001838152602001828103825285818151815260200191508051906020019060200280838360005b8381101561043e578082015181840152602081019050610423565b50505050905001955050505050506000604051808303818588803b15801561046557600080fd5b505af1158015610479573d6000803e3d6000fd5b50505050506040513d6000823e3d601f19601f8201168201806040525060208110156104a457600080fd5b81019080805160405193929190846401000000008211156104c457600080fd5b838201915060208201858111156104da57600080fd5b82518660208202830111640100000000821117156104f757600080fd5b8083526020830192505050908051906020019060200280838360005b8381101561052e578082015181840152602081019050610513565b505050509050016040525050509050600460009054906101000a900473ffffffffffffffffffffffffffffffffffffffff168260018151811061056d57fe5b602002602001019073ffffffffffffffffffffffffffffffffffffffff16908173ffffffffffffffffffffffffffffffffffffffff16815250506060600660009054906101000a900473ffffffffffffffffffffffffffffffffffffffff1673ffffffffffffffffffffffffffffffffffffffff16637ff36ab58989863360b442016040518663ffffffff1660e01b815260040180858152602001806020018473ffffffffffffffffffffffffffffffffffffffff1673ffffffffffffffffffffffffffffffffffffffff168152602001838152602001828103825285818151815260200191508051906020019060200280838360005b8381101561067f578082015181840152602081019050610664565b50505050905001955050505050506000604051808303818588803b1580156106a657600080fd5b505af11580156106ba573d6000803e3d6000fd5b50505050506040513d6000823e3d601f19601f8201168201806040525060208110156106e557600080fd5b810190808051604051939291908464010000000082111561070557600080fd5b8382019150602082018581111561071b57600080fd5b825186602082028301116401000000008211171561073857600080fd5b8083526020830192505050908051906020019060200280838360005b8381101561076f578082015181840152602081019050610754565b505050509050016040525050509050600560009054906101000a900473ffffffffffffffffffffffffffffffffffffffff16836001815181106107ae57fe5b602002602001019073ffffffffffffffffffffffffffffffffffffffff16908173ffffffffffffffffffffffffffffffffffffffff16815250506060600660009054906101000a900473ffffffffffffffffffffffffffffffffffffffff1673ffffffffffffffffffffffffffffffffffffffff16637ff36ab58888873360b442016040518663ffffffff1660e01b815260040180858152602001806020018473ffffffffffffffffffffffffffffffffffffffff1673ffffffffffffffffffffffffffffffffffffffff168152602001838152602001828103825285818151815260200191508051906020019060200280838360005b838110156108c05780820151818401526020810190506108a5565b50505050905001955050505050506000604051808303818588803b1580156108e757600080fd5b505af11580156108fb573d6000803e3d6000fd5b50505050506040513d6000823e3d601f19601f82011682018060405250602081101561092657600080fd5b810190808051604051939291908464010000000082111561094657600080fd5b8382019150602082018581111561095c57600080fd5b825186602082028301116401000000008211171561097957600080fd5b8083526020830192505050908051906020019060200280838360005b838110156109b0578082015181840152602081019050610995565b505050509050016040525050509050816001815181106109cc57fe5b602002602001015194505050505060016000819055509695505050505050565b600660009054906101000a900473ffffffffffffffffffffffffffffffffffffffff1681565b610a1a610dd7565b73ffffffffffffffffffffffffffffffffffffffff16600160009054906101000a900473ffffffffffffffffffffffffffffffffffffffff1673ffffffffffffffffffffffffffffffffffffffff1614610adc576040517f08c379a00000000000000000000000000000000000000000000000000000000081526004018080602001828103825260208152602001807f4f776e61626c653a2063616c6c6572206973206e6f7420746865206f776e657281525060200191505060405180910390fd5b600073ffffffffffffffffffffffffffffffffffffffff16600160009054906101000a900473ffffffffffffffffffffffffffffffffffffffff1673ffffffffffffffffffffffffffffffffffffffff167f8be0079c531659141344cd1fd0a4f28419497f9722a3daafe3b4186f6b6457e060405160405180910390a36000600160006101000a81548173ffffffffffffffffffffffffffffffffffffffff021916908373ffffffffffffffffffffffffffffffffffffffff160217905550565b6000600160009054906101000a900473ffffffffffffffffffffffffffffffffffffffff16905090565b610bcf610dd7565b73ffffffffffffffffffffffffffffffffffffffff16600160009054906101000a900473ffffffffffffffffffffffffffffffffffffffff1673ffffffffffffffffffffffffffffffffffffffff1614610c91576040517f08c379a00000000000000000000000000000000000000000000000000000000081526004018080602001828103825260208152602001807f4f776e61626c653a2063616c6c6572206973206e6f7420746865206f776e657281525060200191505060405180910390fd5b600073ffffffffffffffffffffffffffffffffffffffff168173ffffffffffffffffffffffffffffffffffffffff161415610d17576040517f08c379a0000000000000000000000000000000000000000000000000000000008152600401808060200182810382526026815260200180610de06026913960400191505060405180910390fd5b8073ffffffffffffffffffffffffffffffffffffffff16600160009054906101000a900473ffffffffffffffffffffffffffffffffffffffff1673ffffffffffffffffffffffffffffffffffffffff167f8be0079c531659141344cd1fd0a4f28419497f9722a3daafe3b4186f6b6457e060405160405180910390a380600160006101000a81548173ffffffffffffffffffffffffffffffffffffffff021916908373ffffffffffffffffffffffffffffffffffffffff16021790555050565b60003390509056fe4f776e61626c653a206e6577206f776e657220697320746865207a65726f2061646472657373a264697066735822122046616287e7d699dc5d4b09fd1afce0254d8292aec1cba7fb5aa4912af2d978c564736f6c63430006000033",
  "compiler": {
    "name": "solc",
    "version": "0.6.0+commit.26b70077.Emscripten.clang",
    "optimizer": {
      "enabled": false,
      "runs": 200
    },
    "evmVersion": "petersburg"
  }
}